:020000040800F2
:10000000B0180020FD140008711B00087F1B0008B9
:100010008B1B0008971B0008A31B000800000000B2
:10002000000000000000000000000000AF1B0008FE
:10003000BD1B000800000000CB1B00083D1B000892
:100040006915000869150008691500086915000898
:100050006915000869150008691500086915000888
:100060006915000869150008691500086915000878
:100070006915000869150008691500086915000868
:100080006915000869150008691500086915000858
:100090006915000869150008691500086915000848
:1000A0006915000869150008691500086915000838
:1000B0006915000869150008691500086915000828
:1000C0006915000869150008691500086915000818
:1000D0006915000869150008691500086915000808
:1000E0006915000869150008ED1B0008691500086E
:1000F00069150008691500086915000869150008E8
:1001000069150008691500086915000869150008D7
:1001100069150008691500086915000869150008C7
:1001200069150008691500086915000869150008B7
:1001300069150008691500086915000869150008A7
:10014000691500086915000869150008D91B000821
:100150006915000869150008691500086915000887
:100160006915000869150008691500086915000877
:100170006915000869150008691500086915000867
:10018000691500086915000880B485B000AF786073
:100190000023FB607B68DB684FF0FF325A607B68AE
:1001A000DB684FF0FF325A61FB7B43F08003FB7347
:1001B0007B7B43F008037B737B68DB68FA689A619A
:1001C00000BF1437BD465DF8047B704780B586B02C
:1001D00000AF78600023FB7400237B610023FB6089
:1001E000032002F089F97B68DB681B69FB607B698F
:1001F00001337B617B69184A934201D9002326E0D1
:10020000FB68C3F3C073DBB2002BE9D000237B6132
:10021000FB6843F00103FB607B68DB68FA681A61E6
:100220007B68DB681B69FB607B6901337B617B69F1
:10023000094A934206D8FB68C3F30003DBB2012BE3
:10024000EED000E000BF032002F056F9FB7C184618
:100250001837BD4680BD00BF400D030080B489B093
:1002600000AFF860B96011461A460B46FB711346A1
:10027000BB800023FB76FB68DB78002B22D10023B8
:100280007B610023FB61BB880333002B00DA03335F
:100290009B107B61FB79FA6832339B0013449B68A7
:1002A0003B610023FB6109E0BB681A683B691A6087
:1002B000FB690133FB61BB680433BB60FA697B698E
:1002C0009A42F1D3FB7E18462437BD465DF8047B85
:1002D000704780B489B000AFF860B9601346FB8006
:1002E0000023FB61FB880333002B00DA03339B10F0
:1002F000BB61FB68D3F8D0307B610023FB6109E070
:100300007B691A68BB681A60FB690133FB61BB68D3
:100310000433BB60FA69BB699A42F1D3BB681846E3
:100320002437BD465DF8047B7047000080B487B079
:1003300000AF78600B46FB7000233B610023FB732A
:100340007B680022DA707B6801229A707B68402209
:100350009A80FB78012B13D14FF0A0433B617B685F
:100360000122DA727B6808221A707B6804225A70B4
:100370007B684FF4A072DA807B6802221A7211E067
:10038000FB78002B0ED1454B3B617B680022DA7273
:100390007B680C221A707B6806225A707B684FF4C7
:1003A000A062DA803A697B68DA603B6903F5006332
:1003B0001A467B681A6100237B611CE07B695A0145
:1003C0003B69134403F5106319467A687B6904336B
:1003D0009B00134499607B695A013B69134403F500
:1003E000306319467A687B6914339B001344596063
:1003F0007B6901337B617B685B781A467B6993423A
:10040000DCD33B6903F580631A467B685A613B691C
:1004100003F588631A467B68C3F8CC2000237B6110
:100420000FE07B695A013B69134403F5A063194649
:100430007A687B6922339B00134499607B6901339E
:100440007B617B681B781A467B699342E9D3002362
:100450007B610FE07B691A033B69134403F580530A
:1004600019467A687B6932339B00134499607B6933
:1004700001337B617B681B781A467B699342E9D321
:100480003B6903F560631A467B68C3F80C21FB7B6C
:1004900018461C37BD465DF8047B704700000440D9
:1004A00080B588B000AF78600023FB770023BB6184
:1004B00000237B610023FB607B681B7A012B4FD1FB
:1004C0007B68DB689B6B7B61BB7D6FF30003BB7557
:1004D0007B685B7A002B03D0BB7D43F01003BB75B8
:1004E0007B68DB687A699A630023BB617B68DB68A1
:1004F000DB68BB613B7E6FF386133B76BB7E6FF39D
:100500008613BB763B7E43F010033B763B7E6FF356
:10051000C3033B763B7E6FF3C7133B76BB7E6FF323
:100520004103BB76BB7E6FF3C303BB767B68DB689E
:10053000BA69DA607868FFF749FE7B68DB78012BDF
:1005400040F082803B7B052262F344033B733B7B9C
:1005500043F020033B737B68DB68FA689A6073E0C2
:100560007B68DB68DB68BB613B7E43F040033B7626
:100570007B68DB68BA69DA607868FFF727FE0023DA
:100580007B61BB7D43F00103BB757B681B7A032B4A
:1005900003D1BB7D43F00203BB75BB7D43F0040375
:1005A000BB75BB7D43F00803BB75BB7D43F02003E7
:1005B000BB757B685B7A002B03D0BB7D43F01003D7
:1005C000BB757B68DB687A699A63142001F0B8FF19
:1005D0007B68DB68DB68BB617B681B7A032B03D11C
:1005E000BB7E43F00103BB767B68DB68BA69DA60E7
:1005F0007B681B7A032B27D17B68DB681B6B3B6115
:10060000FB7C012262F38303FB74BB7C6FF3C71393
:10061000BB74FB7C43F01003FB74BB7C2D2262F3A4
:100620000603BB747B68DB683A691A63C82001F073
:1006300087FFBB7C43F08003BB747B68DB683A694F
:100640001A63C82001F07CFF7B68DB78012B10D196
:100650007B68DB689B68FB603B7B052262F344039D
:100660003B733B7B43F020033B737B68DB68FA689A
:100670009A60FB7F18462037BD4680BD80B485B0A8
:1006800000AF78600023FB730023BB603B7A43F02C
:1006900001033B727B68DB689968BA687B68DB683A
:1006A0000A439A60FB7B18461437BD465DF8047B0D
:1006B000704780B485B000AF78600023FB730023DF
:1006C000BB603B7A43F001033B727B68DB6899684F
:1006D000BB68DA437B68DB680A409A60FB7B18469C
:1006E0001437BD465DF8047B7047000080B586B0C6
:1006F00000AF786039600023FB7400237B61002326
:10070000FB60FB6843F02003FB603B6803F01F03C2
:10071000DAB2FB6862F38A13FB607B68DB68FA6815
:100720001A617B68DB681B69FB607B6901337B6155
:100730007B69094A934206D8FB68C3F34013DBB2D6
:10074000012BEED000E000BF032001F0D5FEFB7CC2
:1007500018461837BD4680BD400D030080B586B0F1
:1007600000AF78600023FB7400237B610023FB60F3
:10077000FB6843F01003FB607B68DB68FA681A6172
:100780007B68DB681B69FB607B6901337B617B698C
:10079000094A934206D8FB68C3F30013DBB2012B6E
:1007A000EED000E000BF032001F0A6FEFB7C18465F
:1007B0001837BD4680BD00BF400D030080B584B032
:1007C00000AF78600B46FB700023FB737B68DB682F
:1007D000DB68BB60FB7A6FF34513FB72FB7A6FF348
:1007E0008613FB72FB78012B04D1FB7A43F02003C4
:1007F000FB7206E0FB78002B03D1FB7A43F0400349
:10080000FB727B68DB68BA68DA60322001F098FE20
:10081000FB7B18461037BD4680BD80B483B000AF67
:1008200078607B68DB685B6903F0010318460C376E
:10083000BD465DF8047B704780B582B000AF78603C
:100840007868FFF7EAFF0346012B14BF012300235A
:10085000DBB218460837BD4680BD80B485B000AF16
:1008600078600023FB607B68DB685B69FB607B680A
:10087000DB689B69FA681340FB60FB681846143715
:10088000BD465DF8047B704780B485B000AF7860EA
:100890000B46FB707B681B691B68FB60FB7803F0F1
:1008A0000303DAB23B7B62F301033B737B681B6992
:1008B000FA681A6000BF1437BD465DF8047B7047C4
:1008C00080B58CB000AF7860002387F82B30002310
:1008D0007B6200233B620023FB610023BB6100239A
:1008E0007B617B68D3F80C3100221A607B681B693E
:1008F0001B683B6297F821306FF3C40387F82130FF
:100900007B681B693A6A1A607B68DB7A012B33D1FA
:1009100003217868FFF7B8FF7B68DB6880225A62A2
:100920004023FB838023BB837B68DB68FA699A6280
:10093000BA8BFB8B13449BB23B8380237B837B6806
:10094000DB68BA69C3F804213A8B7B8B13449BB2F2
:100950003B8300237B837B68DB68BA69C3F808218B
:100960003A8B7B8B13449BB23B8300237B837B6856
:10097000DB68BA69C3F80C2110217868FFF7B6FE6E
:100980007868FFF7EBFE7B681B6900221A617B68C1
:100990001B6900225A617B681B694FF0FF329A6124
:1009A0007B681B690022DA610023FB623AE07A6807
:1009B000FB6A04339B0013449B681B687B6297F8B7
:1009C000273023F07F03DBB2002B0ED000237B62A5
:1009D00097F8273043F0400387F8273097F82730FF
:1009E00043F0080387F8273001E000237B627A6830
:1009F000FB6A04339B0013449B687A6A1A607A6826
:100A0000FB6A04339B0013449B6800221A617A68D6
:100A1000FB6A04339B0013449B68FF229A60FB6AC5
:100A20000133FB627B685B781A46FB6A9342BED354
:100A30000023FB6235E07A68FB6A14339B001344A1
:100A40005B681B68FB60FB7B23F07F03DBB2002B42
:100A50000AD00023FB60FB7B43F04003FB73FB7B6E
:100A600043F00803FB7301E00023FB607A68FB6A34
:100A700014339B0013445B68FA681A607A68FB6A57
:100A800014339B0013445B6800221A617A68FB6A86
:100A900014339B0013445B68FF229A60FB6A0133A6
:100AA000FB627B685B781A46FB6A9342C3D30023E0
:100AB0007B617B7D43F001037B757B681B691A6951
:100AC0007B69DB4302EA03017A697B681B690A439D
:100AD0001A617B68DB78012B1BD100233B613B7CD7
:100AE00043F001033B743B7C43F002033B743B8ABD
:100AF000402262F38A033B82BB7C43F00103BB7458
:100B00007B8A402262F349037B827B681B693A69D6
:100B10001A63786800F006F897F82B3018463037DB
:100B2000BD4680BD80B584B000AF78600023FB7304
:100B30000023BB607B68DB6800229A617B68DB680E
:100B40004FF0FF325A617868FFF71EFB7B68DB7855
:100B5000002B03D13B7A43F010033B727B7A43F0C6
:100B600008037B727B7A43F010037B727B7A43F03D
:100B700020037B72BB7A43F00403BB72BB7A43F061
:100B80000803BB723B7A43F008033B72BB7A43F025
:100B90001003BB72BB7A43F02003BB727B68DB6837
:100BA0009A69BB68DB4302EA0301BA687B68DB68C9
:100BB0000A439A61FB7B18461037BD4680BD80B45E
:100BC00085B000AF78600023FB737B681B699B686E
:100BD000BB603B7AC3F34103DBB2022B09D0032B8A
:100BE00004D0012B02D00323FB7305E00223FB7327
:100BF00002E00123FB7300BFFB7B18461437BD46A0
:100C00005DF8047B704780B487B000AF7860002344
:100C1000FB750023BB607B681B699B683B617B683D
:100C20009B691B68FB603B7CC3F34103DBB2022B77
:100C300004D0BB896FF30A03BB8105E0BB890322A3
:100C400062F30A03BB8100BF7B689B69FA681A6084
:100C50007B7A43F001037B727B681B695A68BB682F
:100C6000DB4302EA0301BA687B681B690A435A60E6
:100C7000FB7D18461C37BD465DF8047B704780B489
:100C800087B000AF786039600023FB740023FB60FD
:100C90000023BB603B685B78012B0FD13B681B785E
:100CA0007A6804339B0013449B687B613B681B7824
:100CB0001A46012393409BB23B810EE03B681B78B0
:100CC0007A6814339B0013445B687B613B681B7834
:100CD0001A46012393409BB27B817B691B68FB60B2
:100CE0007B7B23F07F03DBB2002B25D13B689B6825
:100CF000C3F30A039AB2BB8962F30A03BB813B6860
:100D0000DB7803F00303DAB2BB7B62F38303BB73CC
:100D10003B68DB8803F00F03DAB2FB8962F38913C7
:100D2000FB81FB7B43F01003FB737B7B43F0800371
:100D30007B73FA687B691A607B681B69D969BA683A
:100D40007B681B690A43DA61FB7C18461C37BD4689
:100D50005DF8047B704780B487B000AF786039607D
:100D60000023FB740023FB600023BB603B685B78BF
:100D7000012B0FD13B681B787A6804339B00134426
:100D80009B687B613B681B781A46012393409BB2AA
:100D90003B810EE03B681B787A6814339B00134458
:100DA0005B687B613B681B781A46012393409BB2CA
:100DB0007B817B7B6FF3C7137B73FA687B691A6057
:100DC0007B681B69D969BB68DA437B681B690A4089
:100DD000DA61FB7C18461C37BD465DF8047B704722
:100DE00080B588B000AF786039600023FB770023BE
:100DF000BB6100237B6100233B613B685B78012B77
:100E000040F0AA803B681B787A6804339B00134447
:100E10009B681B687B613B681B787A6804339B0086
:100E200013449B681B693B613B685B69002B09D1DC
:100E30003B696FF312033B617B8A012262F3CC03AF
:100E40007B8221E03B685B69C3F312023B6962F37A
:100E500012033B613B685A693B689B6813445A1E06
:100E60003B689B68B2FBF3F3C3F309039AB27B8A36
:100E700062F3CC037B823B68DB78012B04D1FB7CE3
:100E8000012262F34613FB743B681B787A680433D3
:100E90009B0013449B683A691A617B68DB78012BDD
:100EA0000AD13B681B787A6804339B0013449B6823
:100EB0003A6812695A6115E03B68DB78012B11D062
:100EC0003B685B69002B0DD03B681B781A460123F9
:100ED0009340BB617B681B69596B7B681B69BA696E
:100EE0000A435A633B68DB78012B14D17B681B698A
:100EF0009B68FB60FB68C3F30D239BB203F0010307
:100F0000002B04D1FB7D43F02003FB7503E0FB7D48
:100F100043F01003FB75FB7D43F00403FB75FB7D81
:100F200043F08003FB753B681B787A6804339B00B1
:100F300013449B687A691A603B68DB78012B40F0A8
:100F40008B803B68D9683B681A783B685B699BB2C9
:100F50007868FFF783F97FE03B681B787A68143381
:100F60009B0013445B681B687B613B681B787A6855
:100F700014339B0013445B681B693B613B685B69EE
:100F8000002B0DD13B689B68C3F312023B6962F3EF
:100F900012033B617B8A012262F3CC037B8222E055
:100FA0003B685A693B689B6813445A1E3B689B68C0
:100FB000B2FBF3F3C3F309039AB27B8A62F3CC0367
:100FC0007B827B8AC3F3C9039BB2C3F312033A68E3
:100FD0009268C2F3120202FB03F2C2F312023B69EF
:100FE00062F312033B613B681B787A6814339B0001
:100FF00013445B683A691A617B68DB78012B09D17D
:101000003B681B787A6814339B0013445B683A682A
:1010100012695A613B68DB78012B0CD13B685B7924
:10102000002B04D0FB7D43F02003FB7503E0FB7D28
:1010300043F01003FB75FB7D43F00403FB75FB7D60
:1010400043F08003FB753B681B787A6814339B0080
:1010500013445B687A691A60FB7F18462037BD46E7
:1010600080BD80B489B000AF786039600023FB7721
:101070000023BB6100233B610023BB603B685B78BE
:10108000012B6ED17B689B697B617B691B683B612F
:101090007B691B69BB603B685B69002B09D13B7AAC
:1010A0006FF306033B72BB7A012262F3C403BB7287
:1010B00021E03B685A693B689B689A420DD93B68BE
:1010C0009A683B685A613B689B6803F07F03DAB219
:1010D0003B7A62F306033B7208E03B685B6903F00E
:1010E0007F03DAB23B7A62F306033B72BB7A0122DA
:1010F00062F3C403BB72BA687B691A617B68DB78F0
:10110000012B09D13B681B787A6804339B00134498
:101110009B683A6812695A61FB7C43F00403FB74D4
:10112000FB7C43F08003FB743A697B691A607B683F
:10113000DB78002B74D13B685B69002B70D03B6877
:101140001B781A46012393401A46BB691343BB61BF
:101150007B681B69596B7B681B69BA690A435A63D0
:101160005EE03B681B787A6814339B0013445B682D
:101170001B683B613B681B787A6814339B001344FF
:101180005B681B69BB603B685B69002B0ED13B68E9
:101190009B6803F07F03DAB23B7A62F306033B728B
:1011A000BB7A012262F3C403BB7211E03B689A6808
:1011B0003B685A613B689B6803F07F03DAB23B7A75
:1011C00062F306033B72BB7A012262F3C403BB7273
:1011D0003B681B787A6814339B0013445B68BA68D9
:1011E0001A617B68DB78012B09D13B681B787A6830
:1011F00014339B0013445B683A6812695A61FB7CA4
:1012000043F00403FB74FB7C43F08003FB743B68F6
:101210001B787A6814339B0013445B683A691A6040
:10122000FB7F18462437BD465DF8047B704780B4C9
:1012300087B000AF786039600023FB750023FB6046
:101240003B685B78012B1CD13B681B787A680433C0
:101250009B0013449B683B613B691B68FB60FB7B05
:1012600023F07F03DBB2002B03D0FB7B43F0400372
:10127000FB73BB7B43F02003BB73FA683B691A60C6
:1012800011E03B681B787A6814339B0013445B6859
:101290003B613B691B68FB60BB7B43F02003BB7376
:1012A000FA683B691A60FB7D18461C37BD465DF83D
:1012B000047B704780B487B000AF7860396000234A
:1012C000FB740023FB603B685B78012B08D13B6813
:1012D0001B787A6804339B0013449B687B6107E0AA
:1012E0003B681B787A6814339B0013445B687B610E
:1012F0007B691B68FB60BB7B6FF34513BB733B686B
:10130000DB78032B03D03B68DB78022B03D1FB7B1C
:1013100043F01003FB73FA687B691A60FB7C184684
:101320001C37BD465DF8047B704780B485B000AFC4
:1013300078607B681B699B69FB607B681B69DB6964
:10134000FA681340FB60FB681B0C18461437BD4657
:101350005DF8047B704780B485B000AF78600B46C1
:10136000FB70FB787A6814339B0013445B689B68BE
:10137000FB607B681B695B69FA681340FB60FB6874
:1013800018461437BD465DF8047B704780B485B0BD
:1013900000AF78607B681B699B69FB607B681B6999
:1013A000DB69FA681340FB60FB689BB21846143790
:1013B000BD465DF8047B704780B487B000AF7860AD
:1013C00000233B61FB7C43F0C003FB74BB7C012228
:1013D00062F3C403BB743B7C182262F306033B74C4
:1013E0007B685B6D3A691A617B68DB78012B16D1EB
:1013F0000023FB607B6803F5B9627B685B6D5A6113
:101400007B685B6D1B68FB60FB7B43F08003FB73B9
:101410004FF08023FB607B685B6DFA681A6000BF49
:101420001C37BD465DF8047B704780B485B000AFC3
:1014300078607B689B7A002B1BD07B681B699B685C
:10144000FB603B7B03F00103DBB2002B11D07B6818
:1014500003F586731B68BB603B7A6FF341033B72F5
:101460003B7A6FF300033B727B68D3F80C31BA68A8
:101470001A6000BF1437BD465DF8047B704780B426
:1014800000AF00BFBD465DF8047B704780B483B0F9
:1014900000AF0346FB71FB79002B02D0012B02D079
:1014A00002E000BF00E000BF00BF0C37BD465DF8A2
:1014B000047B704780B400AF00BFBD465DF8047B7D
:1014C000704780B400AF00BFBD465DF8047B704735
:1014D00080B400AF00BFBD465DF8047B704780B4A8
:1014E00000AF00BFBD465DF8047B704780B400AF1D
:1014F00000BFBD465DF8047B7047000080B582B038
:1015000000AF134B7B60134B3B6007E07A68131D01
:101510007B603B68191D396012681A603B680E4A8F
:101520009342F3D30D480E494FF000028842B8BFF2
:1015300040F8042BFADBDFF82C00016841F470015D
:10154000016000F057FA00BF0837BD4680BD00BFFC
:1015500088440008000000203001002030010020F5
:10156000AC10002088ED00E080B400AFFEE780B54D
:1015700084B000AFF8607A603B600B46FB72F8689D
:1015800000F048FFF86800F01DF8FB683A68C3F8FF
:10159000E025FB68BA69C3F8E425FB687A68C3F8FC
:1015A000E825FB7A1946F86802F068FCFB68D3F876
:1015B000E4351B689847F86800F084FF00BF1037D7
:1015C000BD4680BD80B483B000AF7860002318466C
:1015D0000C37BD465DF8047B704780B584B000AF22
:1015E000786007F108031946786801F089FB3B7AB7
:1015F00003F01F03012B0AD0022B0FD0002B14D1B4
:1016000007F108031946786800F0AAFF16E007F111
:1016100008031946786800F0F3FF0FE007F10803AC
:101620001946786801F020F808E03B7A23F07F0340
:10163000DBB21946786802F0AEFD00BF0023184601
:101640001037BD4680BD80B584B000AF78600B46D2
:10165000FB70FB78002B44D17B6803F55C73FB6067
:101660007B6893F81131032B4ED1FB68DA69FB6874
:101670009B689A4220D9FB68DA69FB689B68D21A9A
:10168000FB68DA617B68DB78012B06D1FB68DA68DE
:10169000FB689B681A44FB68DA60FB68D968FB68E2
:1016A0009A68FB68DB69934228BF13469BB21A46CF
:1016B000786802F058FE27E07B68D3F8E0351B69B4
:1016C000002B0AD07B6893F81231032B05D17B687D
:1016D000D3F8E0351B6978689847786802F057FEC0
:1016E00012E07B68D3F8E0359B69002B0CD07B6857
:1016F00093F81231032B07D17B68D3F8E0359B694F
:10170000FA78114678689847002318461037BD4686
:1017100080BD80B584B000AF78600B46FB70FB786D
:10172000002B5FD17B6803F58C73FB607B6893F8BB
:101730001131022B69D1FB68DA69FB689B689A4218
:101740001BD9FB68DA69FB689B68D21AFB68DA610F
:101750007B68DB78012B06D1FB68DA68FB689B6845
:101760001A44FB68DA60FB68D968FB68DB699BB2E6
:101770001A46786802F0C3FD47E0FB681B6AFA6806
:101780009268B3FBF2F102FB01F29B1A002B14D119
:10179000FB681A6AFB689B689A420ED3FB681A6A58
:1017A000FB685B6A9A4208D200220021786802F046
:1017B000A6FDFB6800225A6227E07B68D3F8E0357B
:1017C000DB68002B0AD07B6893F81231032B05D11C
:1017D0007B68D3F8E035DB6878689847786802F072
:1017E000EEFD12E07B68D3F8E0355B69002B0CD08E
:1017F0007B6893F81231032B07D17B68D3F8E0356F
:101800005B69FA78114678689847002318461037C4
:10181000BD4680BD80B582B000AF78600023402215
:101820000021786802F0ABFB002340228021786819
:1018300002F0A5FB7B68012283F812217B68D3F8B4
:10184000E4355B687A68927810469847002318461A
:101850000837BD4680BD80B582B000AF78607B6838
:10186000D3F8E4351B6998477B68032283F812217B
:10187000002318460837BD4680BD80B582B000AF52
:1018800078607B68042283F812217B68D3F8E43502
:10189000DB689847002318460837BD4680BD80B5F1
:1018A00082B000AF78607B68D3F8E035DB69002B4D
:1018B00005D07B68D3F8E035DB697868984700236A
:1018C00018460837BD4680BD80B582B000AF78604D
:1018D0000B46FB707B68D3F8E0351B68FA7811463D
:1018E000786898477B68D3F8E4359B68984700236D
:1018F00018460837BD4680BD80B582B000AF78601D
:101900000B46FB707B68D3F8E0355B68FA781146CC
:1019100078689847002318460837BD4680BD80B5D3
:1019200082B000AF78607B68D3F8E0351B6A7868D6
:101930009847002318460837BD4680BD80B582B061
:1019400000AF78607B68D3F8E0355B6A78689847C9
:10195000002318460837BD4680BD000080B483B020
:1019600000AF03463960FB7197F90730002B0BDAA3
:101970003B68DAB20C49FB7903F00F03043B120118
:10198000D2B20B441A7609E03B68DAB2074997F9FC
:1019900007301201D2B20B4483F8002300BF0C378A
:1019A000BD465DF8047B704700ED00E000E100E01B
:1019B00080B582B000AF78607B68B3F1807F01D3DF
:1019C000012311E07B6823F07F43094A013B536008
:1019D0000F214FF0FF30FFF7C1FF054B00229A6047
:1019E000034B07221A60002318460837BD4680BD06
:1019F00010E000E080B582B000AF00F059FC00F0CC
:101A000037F8184B1B68B3F5FA7F04D1164B4FF427
:101A100000525A830BE0134B1B68B3F57A7F06D153
:101A2000104B00221A60104B4FF400521A83FB1D1A
:101A3000184600F011FC0346002B0AD0FB7918462B
:101A400000F094FB084B4FF480521A83074B0A2294
:101A50001A60064B1B68002BD3D1034B4FF4805206
:101A60005A83CEE75C010020000C02406001002098
:101A700080B584B002AF0121082000F0D3F84FF404
:101A800070433B6001233B710023BB7101237B71D9
:101A90000023FB713B4619460E4800F0F7F90E4B48
:101AA0001B680E4AA2FB03239B091846FFF780FF21
:101AB0000346002B01D000F01BF8094B0093094BA3
:101AC000094A01210948FFF752FD00BF0837BD460A
:101AD00080BD00BF000C0240A8000020D34D621062
:101AE00000000020040100204C00002064010020C0
:101AF00080B483B000AF0123FB8000233B6000BFB4
:101B00003B685A1C3A600B4A9342F9D90A4AFB884F
:101B10001B039BB25383FB885B00FB80FB880F2B6E
:101B200001D90123FB80044AFB881B039BB213836A
:101B3000E3E700BF1FA10700000C024080B400AF24
:101B4000094B1B680133084A1360084B1B68002BC4
:101B500004D0064B1B68013B044A136000BFBD461E
:101B60005DF8047B704700BF5C010020600100202D
:101B700080B400AF00BFBD465DF8047B704780B500
:101B800000AFFFF7B5FF00BF80BD80B500AFFFF726
:101B9000AFFF00BF80BD80B500AFFFF7A9FF00BF5A
:101BA00080BD80B500AFFFF7A3FF00BF80BD80B44C
:101BB00000AF00BFBD465DF8047B704780B400AF46
:101BC00000BFBD465DF8047B704780B400AF00BF26
:101BD000BD465DF8047B704780B500AF024801F058
:101BE00056F900BF80BD00BF6401002080B500AF82
:101BF0000A4B9B7A002B0AD0094B1B68084A23F03A
:101C00000603136000F054FB0448FFF70EFC4FF48A
:101C1000802002F0ADF800BF80BD00BF640100204D
:101C200010ED00E080B483B000AF78600B46FB702D
:101C3000FB78002B06D00A4B1A6B09497B681343CB
:101C40000B6306E0064B1A6B7B68DB4304491340C9
:101C50000B6300BF0C37BD465DF8047B704700BFC7
:101C60000038024080B483B000AF78600B46FB7050
:101C7000FB78002B06D00A4B5A6B09497B6813434B
:101C80004B6306E0064B5A6B7B68DB430449134009
:101C90004B6300BF0C37BD465DF8047B704700BF47
:101CA0000038024080B483B000AF78600B46FB7010
:101CB000FB78002B06D00A4B5A6C09497B6813430A
:101CC0004B6406E0064B5A6C7B68DB4304491340C7
:101CD0004B6400BF0C37BD465DF8047B704700BF06
:101CE0000038024080B483B000AF78600B46FB70D0
:101CF000FB78002B06D00A4B1A6A09497B6813430C
:101D00000B6206E0064B1A6A7B68DB43044913400A
:101D10000B6200BF0C37BD465DF8047B704700BF07
:101D20000038024080B483B000AF03463960FB71D5
:101D30003B6812221A80034B18460C37BD465DF8EB
:101D4000047B70476800002080B483B000AF034676
:101D50003960FB713B6804221A80034B18460C372C
:101D6000BD465DF8047B70478800002080B582B0D6
:101D700000AF03463960FB71FB79002B05D13A684F
:101D80000749084801F028F804E03A680449064881
:101D900001F022F8024B18460837BD4680BD00BF4F
:101DA000EC070020F04300081444000880B582B01E
:101DB00000AF03463960FB713A680449044801F0FA
:101DC0000BF8024B18460837BD4680BDEC070020D3
:101DD0003844000880B582B000AF03463960FB711B
:101DE000FB79002B05D13A680749084800F0F4FF59
:101DF00004E03A680449064800F0EEFF024B18463A
:101E00000837BD4680BD00BFEC0700204C440008E9
:101E10005C44000880B582B000AF03463960FB71B6
:101E2000FB79002B05D13A680749084800F0D4FF38
:101E300004E03A680449054800F0CEFF024B18461A
:101E40000837BD4680BD00BFEC0700206C44000889
:101E500080B582B000AF03463960FB71FB79002B7F
:101E600005D13A680749084800F0B6FF04E03A682F
:101E70000449054800F0B0FF024B18460837BD463C
:101E800080BD00BFEC0700207844000880B487B014
:101E900000AF7860396000237B6100233B61002341
:101EA000FB6000237B6176E001227B6902FA03F389
:101EB0003B613B681B683A691340FB60FA683B6909
:101EC0009A4265D17B681A687B695B00032101FA3D
:101ED00003F3DB431A407B681A607B681A683B682F
:101EE0001B7919467B695B0001FA03F31A437B688F
:101EF0001A603B681B79012B03D03B681B79022BCE
:101F00002ED17B689A687B695B00032101FA03F399
:101F1000DB431A407B689A607B689A683B685B7910
:101F200019467B695B0001FA03F31A437B689A60E8
:101F30007B685A687B699BB2194601238B40DB435F
:101F40001A407B685A607B685B683A6892791146F0
:101F50007A6992B201FA02F292B21A437B685A602D
:101F60007B68DA687B699BB25B00032101FA03F3AB
:101F7000DB431A407B68DA607B68DA683B68DB79B0
:101F800019467B695B0001FA03F31A437B68DA6048
:101F90007B6901337B617B690F2B85D900BF1C37BF
:101FA000BD465DF8047B704780B485B000AF7860B3
:101FB0000B467B8013467B700023FB600023BB60D5
:101FC0007A787B8803F007039B0002FA03F3FB6037
:101FD0007B88DB089BB21A467B68083253F82220C4
:101FE0007B8803F007039B000F2101FA03F3DB4317
:101FF0007988C90889B2084602EA03017B6800F1C2
:10200000080243F822107B88DB089BB21A467B68E3
:10201000083253F82230FA681343BB607B88DB0830
:102020009BB21A467B680832B96843F8221000BF99
:102030001437BD465DF8047B704780B400AF0023C1
:102040001846BD465DF8047B704780B400AF00239E
:102050001846BD465DF8047B7047000080B485B02B
:1020600000AFF860B9607A60FB68232B74D801A2D6
:1020700052F823F05921000859210008592100087D
:102080005921000859210008592100085921000848
:102090005921000859210008592100085921000838
:1020A0005921000859210008592100085921000828
:1020B0005921000859210008592100085921000818
:1020C0005921000859210008592100085921000808
:1020D00059210008592100085921000859210008F8
:1020E00059210008592100085921000859210008E8
:1020F000592100085921000805210008592100082C
:1021000059210008184B1B68DAB2BB681A70164BCD
:102110001B681A0ABB680133D2B21A70124B1B68D3
:102120001A0CBB680233D2B21A700F4B1B681A0E1E
:10213000BB680333D2B21A70BB6804330A4A1279FF
:102140001A70BB680533084A52791A70BB680633A7
:10215000054A92791A7000E000BF00231846143730
:10216000BD465DF8047B70478C00002080B582B0CE
:1021700000AF0346FB71FB1D0121184600F004F877
:1021800000BF0837BD4680BD80B485B000AF786021
:1021900039600023FB6017E07A68FB681A44104B33
:1021A0001B6811780F4AD1540D4B1B6801330C4A40
:1021B0001360FB680133FB60094B1B68B3F5006FCC
:1021C00002D1074B00221A60FA683B689A42E3D3B7
:1021D000002318461437BD465DF8047B704700BFE6
:1021E00044010020AC08002080B485B000AF7860C6
:1021F00039600023FB601EE07A68FB681A44134BC9
:102200001B681178124AD154104B1B6801330F4AD6
:1022100013600E4B1B68802B02D10C4B00221A60FE
:102220000A4B1A680B4B1B689A4201D1022307E044
:10223000FB680133FB60FA683B689A42DCD30023F9
:1022400018461437BD465DF8047B7047E807002048
:1022500054070020D407002080B483B000AF78601A
:10226000104B1A68104B1B689A4201D1002312E0F0
:102270000D4B1B680D4AD25C7B681A700A4B1B68B9
:102280000133094A1360084B1B68802B02D1064BAF
:1022900000221A60012318460C37BD465DF8047B06
:1022A000704700BFE8070020D40700205407002033
:1022B00080B500AF164BD3F88830154A43F470034D
:1022C000C2F88830134B1B68124A43F001031360B5
:1022D000104B00229A600F4B1B680E4A23F0847348
:1022E00023F4803313600B4B0B4A5A60094B1B6875
:1022F000084A23F480231360064B0022DA6000F0C2
:102300000DF8034B4FF000629A6000BF80BD00BF24
:1023100000ED00E0003802401030002480B483B0AB
:1023200000AF00237B6000233B60364B1B68354ABF
:1023300043F480331360334B1B6803F400333B607A
:102340007B6801337B603B68002B03D17B68B3F56E
:10235000A06FF0D12B4B1B6803F40033002B02D08D
:1023600001233B6001E000233B603B68012B42D12D
:10237000244B1B6C234A43F080531364224B1B688D
:10238000214A43F4804313601E4B1E4A9B689360AE
:102390001C4B9B681B4A43F400439360194B9B689A
:1023A000184A43F4A0539360164B184A5A60154BD1
:1023B0001B68144A43F08073136000BF114B1B6805
:1023C00003F00073002BF9D0114B40F205621A6044
:1023D0000C4B9B680B4A23F003039360094B9B68EB
:1023E000084A43F00203936000BF064B9B6803F06A
:1023F0000C03082BF9D100BF0C37BD465DF8047BF8
:10240000704700BF00380240007000400854400789
:10241000003C024080B584B000AF7860012101200B
:10242000FFF700FC4FF4D853BB6003237B730223F8
:102430003B730023BB730023FB7307F108031946AA
:102440001F48FFF723FD0A2208211D48FFF7ACFDB6
:102450000A2209211A48FFF7A7FD0A220B21184872
:10246000FFF7A2FD0A220C211548FFF79DFD4FF44E
:102470008063BB600123BB730123FB7303237B7366
:1024800007F1080319460E48FFF700FD0A220A214A
:102490000B48FFF789FD01214FF48040FFF702FC54
:1024A00001218020FFF7DEFB01214FF08050FFF774
:1024B00019FC012001F05CFC00BF1037BD4680BD57
:1024C0000000024080B584B000AF78604FF4C06077
:1024D00001F05EFC43233B7301237B730323BB7337
:1024E0000123FB7307F10C03184601F065FC00BFE4
:1024F0001037BD4680BD000080B485B000AF786065
:102500000023FB607A6813461B019B1ADB001A4606
:102510000A4BA3FB0213D21A520813449B08BB6058
:10252000FB680133FB60FA68BB689A4200D8F7E7A2
:1025300000BF1437BD465DF8047B704725499224DF
:1025400080B582B000AF78607B684FF47A7202FB8E
:1025500003F31846FFF7D0FF00BF0837BD4680BD24
:1025600080B584B000AF786039600023FB733B68AE
:102570005B78092B39D801A252F823F0CD25000849
:10258000E1250008EB250008D7250008EB25000809
:10259000AF250008A5250008EB250008C325000885
:1025A000B92500083968786800F036F922E0396802
:1025B000786800F005FA1DE03968786800F03EFAA6
:1025C00018E03968786800F0B3FA13E03968786881
:1025D00000F0DEFA0EE03968786800F001FB09E0EF
:1025E0003968786800F064FB04E03968786800F0C6
:1025F000D0FB00BFFB7B18461037BD4680BD00BF37
:1026000080B584B000AF786039600023FB737B68CD
:1026100093F81231032B1BD13B689B88DBB2012B53
:1026200011D87B68D3F8E0359B683968786898479B
:102630003B68DB88002B10D1FB7B002B0DD1786829
:1026400001F0A5FE09E03968786800F0A2FB04E01B
:102650003968786800F09DFB00E000BFFB7B1846FE
:102660001037BD4680BD000080B584B000AF7860F3
:1026700039600023FB733B689B88BB733B685B78C6
:10268000012B39D0032B02D0002B6CD0BDE07B682E
:1026900093F81231022B02D0032B0CD025E0BB7B28
:1026A000002B27D0BB7B802B24D0BB7B19467868BE
:1026B00001F071FD1EE03B685B88002B0AD1BB7BFB
:1026C000002B07D0BB7B802B04D0BB7B19467868DE
:1026D00001F061FD7B68D3F8E0359B683968786864
:1026E0009847786801F053FE05E03968786800F093
:1026F00050FB00E000BF88E07B6893F81231022BAA
:1027000002D0032B0CD025E0BB7B002B27D0BB7B5A
:10271000802B24D0BB7B1946786801F03CFD1EE07D
:102720003B685B88002B1CD1BB7B002B0ED0BB7B96
:10273000802B0BD0BB7B1946786801F067FD7B6866
:10274000D3F8E0359B68396878689847786801F075
:102750001EFE06E03968786800F01BFB02E000BF4F
:1027600053E000BF51E07B6893F81231022B02D096
:10277000032B0CD042E0BB7B002B44D0BB7B802BD7
:1027800041D0BB7B1946786801F005FD3BE097F925
:102790000E30002B15DABB7B03F07F0279681346FD
:1027A0009B001344DB000B4403F58D731B78002B57
:1027B00003D0184B01221A601AE0164B00221A604F
:1027C00016E097F90E30002B12DBBA7B79681346BE
:1027D0009B001344DB000B4403F272331B78002B85
:1027E00003D00C4B01221A6002E00A4B00221A604F
:1027F00002220849786801F062FD05E039687868CE
:1028000000F0C7FA00E000BF00BFFB7B184610379E
:10281000BD4680BD3001002080B584B000AF786037
:1028200039603B685B881B0A9BB2013B062B00F2B8
:10283000A98001A252F823F0552800088528000835
:10284000AD2800088529000885290008712900089D
:102850007B2900087B68D3F8E8351B687A68927892
:1028600007F10A0110469847F8603B68DB88402B67
:1028700005D07B6893F81231012B40F08880082343
:102880007B8184E07B68D3F8E0359B6A7A68927834
:1028900007F10A0110469847F860FB6801330222ED
:1028A0001A707B68FA68C3F8EC2571E03B685B88B6
:1028B000DBB2052B56D801A252F823F0D528000828
:1028C000ED280008052900081D2900083529000801
:1028D0004D2900087B68D3F8E8355B687A68927800
:1028E00007F10A0110469847F86040E07B68D3F88A
:1028F000E8359B687A68927807F10A011046984794
:10290000F86034E07B68D3F8E835DB687A68927861
:1029100007F10A0110469847F86028E07B68D3F871
:10292000E8351B697A68927807F10A0110469847E2
:10293000F8601CE07B68D3F8E8355B697A689278C8
:1029400007F10A0110469847F86010E07B68D3F859
:10295000E8359B697A68927807F10A011046984732
:10296000F86004E03968786800F013FA25E00FE0B9
:102970003968786800F00DFA1FE03968786800F06F
:1029800008FA1AE03968786800F003FA15E000BF29
:102990007B89002B11D03B68DB88002B0DD03B6876
:1029A000DA887B89934228BF13469BB27B817B895F
:1029B0001A46F968786801F082FC1037BD4680BD80
:1029C00080B584B000AF786039603B689B88002B8D
:1029D0002CD13B68DB88002B28D13B685B88DBB2BD
:1029E00003F07F03FB737B6893F81231032B04D150
:1029F0003968786800F0CDF91CE07B68FA7B83F8D1
:102A00001321FB7B1946786801F03BFC786801F0E4
:102A1000BEFCFB7B002B04D07B68022283F81221D2
:102A200008E07B68012283F8122103E039687868A6
:102A300000F0AFF900BF1037BD4680BD80B582B051
:102A400000AF786039603B685B88DAB2374B1A7048
:102A5000364B1B78012B04D93968786800F099F956
:102A60005FE07B6893F81231022B02D0032B1BD05E
:102A700052E02E4B1B78002B12D02C4B1A787B681F
:102A800083F810217B68032283F81221274B1B78DF
:102A900019467868FEF718FF786801F078FC40E086
:102AA000786801F074FC3CE0204B1B78002B12D1BD
:102AB0007B68022283F812211C4B1A787B6883F80A
:102AC00010211A4B1B7819467868FEF715FF7868B5
:102AD00001F05DFC25E07B6893F81021134B1B7817
:102AE0009A4215D07B6893F8103119467868FEF742
:102AF00003FF0E4B1A787B6883F810210B4B1B7871
:102B000019467868FEF7E0FE786801F040FC08E0BE
:102B1000786801F03CFC04E03968786800F039F925
:102B200000BF00BF0837BD4680BD00BF3C0100208C
:102B300080B582B000AF786039603B68DB88012BDC
:102B400004D03968786800F024F91BE07B6893F8BA
:102B50001231022B02D0032B06D00EE001220B49CA
:102B6000786801F0ACFB0DE07B6803F58873012207
:102B70001946786801F0A3FB04E03968786800F032
:102B800008F900BF00BF0837BD4680BD34010020F2
:102B900080B582B000AF786039607B6893F81231FD
:102BA000023B012B11D87B68D3F81431002B03D0E2
:102BB0000A4B03221A6002E0084B01221A6001222C
:102BC0000649786801F07BFB04E03968786800F01A
:102BD000E0F800BF00BF0837BD4680BD38010020C7
:102BE00080B584B000AF786039600023FB733B6828
:102BF0005B88012B0ED17B680122C3F814217B680E
:102C0000D3F8E0359B68396878689847786801F0B0
:102C1000BEFB48E03B685B88022B44D13B689B8845
:102C2000DBB2002B3FD17B681B695B68BB603B68F4
:102C30009B881B0A9BB2FB73FB7B013B042B2BD8AD
:102C400001A252F823F000BF5D2C0008692C000897
:102C5000752C0008812C00088D2C00083B7A01227D
:102C600062F306133B7217E03B7A022262F306130B
:102C70003B7211E03B7A032262F306133B720BE0D6
:102C80003B7A042262F306133B7205E03B7A05228D
:102C900062F306133B7200BF7B681B69BA685A6017
:102CA000786801F074FB00BF1037BD4680BD00BFDF
:102CB00080B582B000AF786039607B6893F81231DC
:102CC000023B012B12D83B685B88012B13D17B6838
:102CD0000022C3F814217B68D3F8E0359B6839687B
:102CE00078689847786801F052FB04E039687868A2
:102CF00000F04FF800E000BF00BF0837BD4680BDC0
:102D000080B483B000AF786039607B6893F8C825E1
:102D10003B681A707B6893F8C9253B685A707B68DA
:102D200093F8CA359AB27B6893F8CB359BB21B02F5
:102D30009BB213449AB23B685A807B6893F8CC35B7
:102D40009AB27B6893F8CD359BB21B029BB21344B9
:102D50009AB23B689A807B6893F8CE359AB27B68CA
:102D600093F8CF359BB21B029BB213449AB23B68D7
:102D7000DA803B68DB881A467B68C3F83C217B68B5
:102D8000012283F8112100BF0C37BD465DF8047B9A
:102D9000704780B582B000AF786039603B681B78BF
:102DA0005BB2002B04DA8021786801F0F4F90CE0C2
:102DB0003B68DB88002B04D18021786801F0EBF9B7
:102DC00003E00021786801F0E6F97868FEF7F4FA8C
:102DD00000BF0837BD4680BD80B586B000AFF86043
:102DE000B9607A600023FB75FB68002B33D0F8686C
:102DF00000F035F8034601339BB25B009AB27B6862
:102E00001A807B681A88FB7D591CF9751946BB68C6
:102E10000B44D2B21A70FB7D5A1CFA751A46BB6875
:102E2000134403221A7012E0FB685A1CFA60FA7D00
:102E3000511CF9751146BA680A441B781370FB7D62
:102E40005A1CFA751A46BB68134400221A70FB68B4
:102E50001B78002BE8D100BF1837BD4680BD80B479
:102E600085B000AF78600023FB7305E0FB7B013386
:102E7000FB737B6801337B607B681B78002BF5D18B
:102E8000FB7B18461437BD465DF8047B704780B560
:102E900086B000AF786000237B617868FDF7CCFCDA
:102EA0000346002B00F09C807868FDF7D6FC0346B3
:102EB0003B613B69002B01D1002392E0BB7C03F016
:102EC0000803DBB2002B06D0786800F013FA024644
:102ED0007B6913437B61BB7C03F00403DBB2002BF3
:102EE00006D0786800F010F902467B6913437B61D5
:102EF0003B7C03F00203DBB2002B09D00023FB6014
:102F00003B7B43F002033B737B68DB68FA685A61E2
:102F1000FB7C23F07F03DBB2002B06D0786800F047
:102F200065F802467B6913437B617B7C03F00803F1
:102F3000DBB2002B06D0786800F098F802467B6977
:102F400013437B613B7C03F00803DBB2002B06D00C
:102F5000786800F08BFA02467B6913437B613B7C07
:102F600003F01003DBB2002B06D0786800F098FA6B
:102F700002467B6913437B617B7C03F01003DBB269
:102F8000002B06D0786800F07FFB02467B69134374
:102F90007B617B7C03F02003DBB2002B06D07868DA
:102FA00000F00EFC02467B6913437B61BB7C03F09F
:102FB0001003DBB2002B06D0786800F03DFC02461F
:102FC0007B6913437B61BB7C03F02003DBB2002BE6
:102FD00006D0786800F04AFC02467B6913437B61A7
:102FE0007B6918461837BD4680BD000080B586B0A5
:102FF00000AF78607B689B7A002B11D07B6803F56B
:1030000086731B68FB603B7B6FF341033B733B7B29
:103010006FF300033B737B68D3F80C31FA681A60D6
:1030200000233B613B7C43F001033B747B681B69DD
:1030300059683B69DA437B681B690A405A600A4B4E
:103040001B689B697868984700237B61FB7D43F090
:103050008003FB757B68DB687A695A610123184637
:103060001837BD4680BD00BF4800002080B586B03F
:1030700000AF7860224B1B685B69786898477B6873
:103080001B699B68FB6000237B617B7D43F0080329
:103090007B757B68DB687A695A617B689B7A002B59
:1030A00029D03B7B03F00103DBB2002B23D00023AC
:1030B0003B613B7C43F001033B747B68D3F80C31EC
:1030C00019683A697B68D3F80C310A431A603B7C73
:1030D00043F002033B747B68D3F80C3119683A69FA
:1030E0007B68D3F80C310A431A60064B1B69054A0A
:1030F00043F006031361012318461837BD4680BD0F
:103100004800002000ED00E080B586B000AF786098
:1031100000233B610023BB607868FEF737F97861D4
:10312000DCE07B6903F00103002B00F0D1803B69F8
:10313000DBB21946786800F0B3FB0346BB603B7A0C
:1031400003F00103DBB2002B32D001223B6902FA0B
:1031500003F3FB607B681B69596BFB68DA437B6890
:103160001B690A405A630023BB603B7A43F00103AA
:103170003B727A683B6904339B0013449B68BA68CE
:103180009A605B4B1B685B683A69D2B211467868FB
:1031900098477B68DB78012B0AD13B69002B07D16C
:1031A0007B6893F81131042B02D17868FEF704F99B
:1031B0003B7A03F00403DBB2002B0DD00023BB608D
:1031C0003B7A43F004033B727A683B6904339B000B
:1031D00013449B68BA689A603B7A03F00803DBB239
:1031E000002B0DD00023BB603B7A43F008033B72F9
:1031F0007A683B6904339B0013449B68BA689A6001
:103200003B7A03F01003DBB2002B0DD00023BB6030
:103210003B7A43F010033B727A683B6904339B00AE
:1032200013449B68BA689A603B7A03F02003DBB2D0
:10323000002B0DD00023BB603B7A43F020033B7290
:103240007A683B6904339B0013449B68BA689A60B0
:103250003B7A03F04003DBB2002B0DD00023BB60B0
:103260003B7A43F040033B727A683B6904339B002E
:1032700013449B68BA689A603B7A03F00203DBB29E
:10328000002B0DD00023BB603B7A43F002033B725E
:103290007A683B6904339B0013449B68BA689A6060
:1032A0003B7A23F07F03DBB2002B11D039697868B9
:1032B00000F078F90023BB603B7A43F080033B7257
:1032C0007A683B6904339B0013449B68BA689A6030
:1032D0003B6901333B617B695B087B617B69002B48
:1032E0007FF41FAF012318461837BD4680BD00BFCD
:1032F0004800002080B586B000AF786000233B61B5
:103300000023FB607868FEF710F87861A3E07B6922
:1033100003F00103002B00F098803B69DBB21946F3
:103320007868FEF718F80346FB603B7B03F0010367
:10333000DBB2002B48D00023FB603B7B43F0010352
:103340003B737A683B6914339B0013445B68FA68EB
:103350009A607B68DB78012B1FD17A683B69143354
:103360009B0013445B681B69BB6079683A6913462C
:103370009B001344DB000B4403F55E731B68BA68C3
:10338000C2F31202991A78683A6913469B001344F3
:10339000DB00034403F562731960334B1B681B6841
:1033A0003A69D2B21146786898477B68DB78012B7E
:1033B0000AD13B69002B07D17B6893F81131052BAB
:1033C00002D17868FDF7F8FF3B7B03F00203DBB224
:1033D000002B0DD00023FB603B7B43F002033B73CB
:1033E0007A683B6914339B0013445B68FA689A60FF
:1033F0003B7B03F00403DBB2002B0DD00023FB600A
:103400003B7B43F004033B737A683B6914339B00B6
:1034100013445B68FA689A603B7B03F00803DBB2F5
:10342000002B12D0104B1B689B68786898470023CC
:10343000FB603B7B43F008033B737A683B691433C2
:103440009B0013445B68FA689A603B6901333B61F7
:103450007B695B087B617B69002B7FF458AF01239C
:1034600018461837BD4680BD4800002080B584B09E
:1034700000AF7860094B1B68DB68786898470023C9
:10348000FB603B7B43F008033B737B68DB68FA68B7
:103490005A61012318461037BD4680BD4800002000
:1034A00080B586B000AF786000233B613B7C43F081
:1034B00010033B747B68DB6899693B69DA437B687E
:1034C000DB680A409A617B68DB681B6AFB603B7BB8
:1034D000C3F30303DBB21A4613469B001344DB001D
:1034E00003F55C737A6813447B61BB7BC3F34303CE
:1034F000DBB2013B052B45D801A252F823F000BFF7
:10350000853500081935000885350008853500081F
:103510008535000861350008BA8947F6F073134015
:103520009BB2002B30D07B69D968BB89C3F30A13E7
:103530009BB21A467868FCF7CCFE7B69DB68BA89D7
:10354000C2F30A1292B21A447B69DA607B699B6902
:10355000BA89C2F30A1292B21A447B699A6113E0E3
:103560007B6803F5B963082219467868FCF7B1FE59
:103570007B699B69BA89C2F30A1292B21A447B69C9
:103580009A6102E000BF00E000BF7B68DB689969D8
:103590003A697B68DB680A439A6101231846183749
:1035A000BD4680BD80B586B000AF7860396000232D
:1035B0007B610023BB603A6813469B001344DB0029
:1035C00003F58C737A681344FB60FB685A69FB68E7
:1035D0009B69D31A7B61FB689B687A699A4202D91E
:1035E000FB689B687B617B6903339B083B617A685E
:1035F0003B6804339B0013449B689B69BB602EE0CF
:10360000FB685A69FB689B69D31A7B61FB689B68FE
:103610007A699A4202D9FB689B687B617B690333B4
:103620009B083B61FB68D9683B68DAB27B699BB257
:103630007868FCF713FEFB68DA687B691A44FB685C
:10364000DA60FB689A697B691A44FB689A617A6858
:103650003B6804339B0013449B689B69BB603B89B8
:103660001A463B69934209D2FB689A69FB685B6919
:103670009A4203D2FB685B69002BC1D10123184633
:103680001837BD4680BD000080B58AB000AF7860B5
:1036900000233B6100233B620023FB610023BB61ED
:1036A00000237B610023FB603B7C43F001033B7400
:1036B0007B681B6959683B69DA437B681B690A4070
:1036C0005A6000217868FDF711F800237B6212E050
:1036D0007A687B6A04339B0013449B68FF229A60DC
:1036E0007A687B6A14339B0013445B68FF229A60FC
:1036F0007B6A01337B627B685B781A467B6A934204
:10370000E6D37B681B694FF0FF329A6101233B844B
:1037100001237B847B681B693A6ADA613B7F43F053
:1037200008033B773B7F43F001033B773B7F43F04C
:1037300004033B773B7F43F002033B777B681B69C5
:10374000FA695A613B7E43F001033B763B7E43F0CE
:1037500008033B763B7E43F002033B763B7E43F01F
:1037600004033B763B7E43F020033B767B681B697A
:10377000BA691A617B681B691B687B61BB8A6FF33E
:103780000A13BB827B681B697A691A607868FDF747
:1037900013FE0023FB607B7B43F010037B737B688D
:1037A000DB68FA685A61054B1B681B6978689847A3
:1037B000012318462837BD4680BD00BF48000020C1
:1037C00080B584B000AF78607868FDF71CFA7B683C
:1037D000DB68DB68BB607868FDF7F1F90346032B13
:1037E0000CD17B6800229A707B684FF400729A803B
:1037F0007B7A092262F385037B720AE07B680122EF
:103800009A707B6840229A807B7A052262F3850356
:103810007B727B68DB68BA68DA600023FB607B7BC5
:1038200043F020037B737B68DB68FA685A610123ED
:1038300018461037BD4680BD80B584B000AF7860B3
:103840000023FB60084B1B68DB6978689847BB7BEB
:1038500043F01003BB737B68DB68FA685A6101238D
:1038600018461037BD4680BD4800002080B584B0A2
:1038700000AF78600023FB60084B1B681B6A786808
:103880009847BB7B43F02003BB737B68DB68FA6817
:103890005A61012318461037BD4680BD48000020FC
:1038A00080B487B000AF78600B46FB707B681B6903
:1038B0001B697B617B681B695B6B3B61FB783A69C9
:1038C00022FA03F3DB01DBB27A6913437B61FB78F5
:1038D0007A6804339B0013449B689B687A691340A1
:1038E000FB60FB6818461C37BD465DF8047B7047DB
:1038F00080B584B000AF78600B46FB707B68D3F86E
:10390000EC3539331A8802238121786800F037FBBF
:103910007B68D3F8EC3540331A880223012178689C
:1039200000F02DFB032308228221786800F027FB9A
:103930000D4BFB60FB68043302221A70FB680533F1
:1039400000221A70094B1B6898477B68D3F8EC3546
:1039500040331B88064A0121786800F0A0FB002351
:1039600018461037BD4680BD680000209400002036
:103970006408002080B582B000AF78600B46FB7011
:103980008121786800F051FB0121786800F04DFB3F
:103990008221786800F049FB034B5B68984700235D
:1039A00018460837BD4680BD9400002080B584B01D
:1039B00000AF786039603B681B7803F06003002B30
:1039C0003DD0202B35D13B68DB88002B27D03B68CE
:1039D0001B785BB2002B10DA354B9B683A68527843
:1039E00010463A68D288334998473B68DB881A46C4
:1039F0003049786800F063FC19E03B685B781A4650
:103A00002D4B1A603B68DB881A462C4B1A603B68CA
:103A1000DB881A462749786800F085FC07E0244BCC
:103A20009B683A685278104600220021984700238C
:103A30003AE039687868FFF7ACF9022334E03B6874
:103A40005B780A2B18D00B2B1CD0062B2BD13B6894
:103A50005B881B0A9BB2212B07D1194BBB603B68CB
:103A6000DB883A2B28BF3A23FB81FB891A46B968C9
:103A7000786800F024FC16E001221249786800F012
:103A80001EFC10E03B685B88DBB2002B06D13B6874
:103A90005B88DBB21A460B4B1A6003E03968786822
:103AA000FFF777F900BF002318461037BD4680BDE9
:103AB00094000020A40800200001002054010020F0
:103AC000CE0000204001002080B582B000AF7860B9
:103AD000094B1B68FF2B0AD0084B9B68064A1068ED
:103AE000074A126807499847034BFF221A600023D0
:103AF00018460837BD4680BD000100209400002014
:103B000054010020A408002080B584B000AF786084
:103B10000B46FB70284B1B78012B48D1274B1B68A9
:103B2000002B03D1244B00221A7040E07B68D3F8AD
:103B3000EC3539331B881A46204B1B689A421ED23B
:103B40001F4B1B68FB817B68D3F8EC35B3F8393029
:103B5000BB817B68D3F8EC3539331B881A46184B88
:103B60001B681344164A1360144B1B687A68D2F81A
:103B7000EC25393212889B1A104A13600FE0104B63
:103B80001B68FB810D4B1B68BB810D4B1A680B4BEF
:103B90001B6813440A4A1360084B00221A60FB8911
:103BA000084A1A44BB898121786800F0B9FA0023D9
:103BB00018461037BD4680BD500100204C01002042
:103BC00048010020AC08002080B584B000AF7860C8
:103BD0000B46FB70FA78796813469B001344DB00B0
:103BE0000B4403F562731B68FB810A4B1B69FA895E
:103BF0001146094898477B68D3F8EC3540331B8859
:103C0000054A0121786800F04AFA00231846103767
:103C1000BD4680BD940000206408002080B582B0BD
:103C200000AF7860084B1B685A1C07490A60052BD7
:103C300005D1054B00221A60786800F007F80023D0
:103C400018460837BD4680BD5801002080B584B0B5
:103C500000AF7860384B1B78012B69D0374B1B685D
:103C6000B3F5006F02D1354B00221A60334B1A684E
:103C7000334B1B689A4203D12F4B00221A7057E036
:103C80002E4B1A682E4B1B689A4206D92B4B1B6889
:103C9000C3F500632B4A136006E0294B1A68274BD3
:103CA0001B68D31A274A13607B68D3F8EC35393385
:103CB0001B881A46234B1B689A421ED21F4B1B6857
:103CC000FB817B68D3F8EC35B3F83930BB817B6876
:103CD000D3F8EC3539331B881A46184B1B6813444C
:103CE000164A1360174B1B687A68D2F8EC253932F4
:103CF00012889B1A134A13600FE0104B1B68FB815C
:103D0000104B1B68BB810D4B1A680E4B1B6813448C
:103D10000A4A13600B4B00221A60074B01221A70EB
:103D2000FB89094A1A44BB898121786800F0F8F9B7
:103D30001037BD4680BD00BF500100204801002063
:103D4000440100204C010020AC08002080B483B066
:103D500000AF03463960FB713B6843221A80034B76
:103D600018460C37BD465DF8047B7047BC00002048
:103D700080B483B000AF7860044A7B68536100BFB1
:103D80000C37BD465DF8047B704700BF003C014026
:103D900080B483B000AF7860064A7B6843F0BF63AD
:103DA00043F40033D36000BF0C37BD465DF8047B9D
:103DB000704700BF00ED00E080B485B000AF7860D0
:103DC0000023FB730023BB730F237B737B68DB78BB
:103DD000002B39D0274BDB68DB431B0ADBB203F037
:103DE0000703FB73FB7BC3F10403BB737A7BFB7B91
:103DF00042FA03F37B737B685B781A46BB7B02FA5B
:103E000003F3FB737B689A787B7B1340DAB2FB7B0E
:103E10001343FB73FB7B1B01FB73174A7B681B7807
:103E20001344FA7B83F800237B681B7803F01F039D
:103E300011497A6812785209D2B21046012202FA68
:103E400003F341F820300FE07B681B7803F01F0379
:103E500009497A6812785209D2B2104601229A4072
:103E600000F1200341F8232000BF1437BD465DF860
:103E7000047B704700ED00E000E100E080B584B015
:103E800000AF78600B46FB70FB7819467868FCF74A
:103E90004DFA7B68012283F812217B68002283F8A7
:103EA00013210023FB6023E0FA6813469B001344B0
:103EB000DB0003F58C737A681344BB60BB68012296
:103EC0005A70FB68DAB2BB681A70FB689AB2BB68BA
:103ED000DA80BB680022DA70BB6840229A60BB6857
:103EE0000022DA60BB6800225A61FB680133FB6084
:103EF0007B685B781A46FB689342D5D30023FB604E
:103F000023E0FA6813469B001344DB0003F55C735F
:103F10007A681344BB60BB6800225A70FB68DAB24F
:103F2000BB681A70FB689AB2BB68DA80BB68002273
:103F3000DA70BB6840229A60BB680022DA60BB6816
:103F400000225A61FB680133FB607B685B781A468C
:103F5000FB689342D5D37868FCF7ABFB7868FCF735
:103F60009FFA00217868FCF729FC7868FCF7A8FC28
:103F70007868FCF783FB00BF1037BD4680BD80B575
:103F800084B000AF7860084611461A460346FB70BD
:103F90000B463B801346BB7097F90330002B0CDABD
:103FA000FB7803F07F0213469B001344DB0003F50C
:103FB0008C737A681344FB600BE0FB7803F07F029C
:103FC00013469B001344DB0003F55C737A681344CB
:103FD000FB60FB7803F07F03DAB2FB681A7097F995
:103FE0000330DBB2DB09DBB21A46FB685A703A8851
:103FF000FB689A60FB68BA78DA70FB685B78002B24
:1040000004D0FB681B789AB2FB68DA80BB78022B7D
:1040100002D1FB6800221A71F9687868FCF72FFE5C
:10402000002318461037BD4680BD80B584B000AF70
:1040300078600B46FB7097F90330002B0CDAFB78A5
:1040400003F07F0213469B001344DB0003F58C73DF
:104050007A681344FB600BE0FB7803F07F021346A1
:104060009B001344DB0003F55C737A681344FB6028
:10407000FB7803F07F03DAB2FB681A7097F903301C
:10408000DBB2DB09DBB21A46FB685A70F968786864
:10409000FCF761FE002318461037BD4680BD80B591
:1040A00086B000AFF8607A601A460B46FB72134682
:1040B0003B81FB7A03F07F0213469B001344DB0035
:1040C00003F55C73FA6813447B617B697A68DA6094
:1040D0003A897B695A617B6900229A617B69002277
:1040E0005A70FB7A03F07F03DAB27B691A70FB68BF
:1040F000DB78012B02D17A687B691A617B691B78B6
:10410000002B04D17969F868FCF7ABFF03E079690B
:10411000F868FCF765FE002318461837BD4680BDD9
:1041200080B586B000AFF8607A603B600B46FB72EA
:10413000FB7A03F07F0213469B001344DB0003F578
:104140008C73FA6813447B617B6901225A70FB7A95
:1041500003F07F03DAB27B691A707B697A68DA60F0
:104160007A687B691A617B6900229A617B693A6887
:104170005A617B691B78002B04D17969F868FCF7D8
:1041800070FF03E07969F868FCF72AFE00231846FF
:104190001837BD4680BD80B584B000AF78600B464F
:1041A000FB7097F90330002B0CDAFB7803F07F02E9
:1041B00013469B001344DB0003F58C737A681344A9
:1041C000FB6009E0FA7813469B001344DB0003F51B
:1041D0005C737A681344FB60FB6801229A70FB7879
:1041E00003F07F03DAB2FB681A7097F90330DBB291
:1041F000DB09DBB21A46FB685A70F9687868FDF78C
:1042000016F8002318461037BD4680BD80B584B02F
:1042100000AF78600B46FB7097F90330002B0CDA87
:10422000FB7803F07F0213469B001344DB0003F589
:104230008C737A681344FB6009E0FA7813469B009C
:104240001344DB0003F55C737A681344FB60FB687E
:1042500000229A70FB7803F07F03DAB2FB681A70D1
:1042600097F90330DBB2DB09DBB21A46FB685A7000
:10427000F9687868FDF71EF8002318461037BD4628
:1042800080BD80B485B000AF78600B46FB70002322
:10429000FB60FB7803F07F03DAB2BB8962F30A1399
:1042A000BB817B681B691968FA687B681B690A43D4
:1042B0001A6000BF1437BD465DF8047B704780B5B7
:1042C00086B000AFF860B9601346FB800023FB7531
:1042D000FA88FB68C3F83821FA88FB68C3F83421F0
:1042E000FB68022283F81121FB88BA680021F86874
:1042F000FFF716FFFB7D18461837BD4680BD80B519
:1043000086B000AFF860B9601346FB800023FB75F0
:10431000FB88BA680021F868FFF702FFFB7D1846AA
:104320001837BD4680BD80B586B000AFF860B96073
:104330001346FB800023FB75FA88FB68C3F89023C3
:10434000FA88FB68C3F88C23FB68032283F81121E9
:10435000FB88BA680021F868FFF7A1FEFB7D1846CC
:104360001837BD4680BD80B586B000AFF860B96033
:104370001346FB800023FB75FB88BA680021F868B0
:10438000FFF78DFEFB7D18461837BD4680BD80B512
:1043900084B000AF78600023FB737B68042283F84D
:1043A00011210023002200217868FFF7B9FE786808
:1043B000FDF702F8FB7B18461037BD4680BD80B57F
:1043C00084B000AF78600023FB737B68052283F81C
:1043D00011210023002200217868FFF760FE786831
:1043E000FCF7EAFFFB7B18461037BD4680BD000096
:1043F00053544D3332205669727475616C20436F8B
:104400006D506F727420696E204853206D6F646523
:104410000000000053544D333220566972747561A8
:104420006C20436F6D506F727420696E204653206C
:104430004D6F64650000000053544D6963726F65F1
:104440006C656374726F6E69637300003030303076
:104450003030303030353042000000003030303005
:1044600030303030303530430000000056435020AB
:10447000436F6E666967000056435020496E74654D
:0644800072666163650035
:104488007F1400088D140008B5140008DF14000814
:10449800ED140008C3140008D114000847160008DA
:1044A80013170008DB1500089F18000815180008E6
:1044B8007B180008571800081F1900083D19000844
:1044C80000000000000000001C000020251D00085E
:1044D800491D0008AD1D00086D1D0008D51D000808
:1044E800151E0008511E00081201000200000040BD
:1044F8008304405700020102030100000A0600027B
:1045080000000040010000000403090400C201008B
:10451800000008003B2000084B2000085D20000830
:1045280089210008E9210008007A030A0000000038
:1045380000000000010203040607080909024300FD
:10454800020100C032090400000102020100052432
:1045580000100105240100010424020205240600BC
:1045680001070582030800FF09040100020A000090
:104578000007050102400000070581024000000015
:10458800FF000000F138000875390008AD3900084F
:1045980000000000C93A0008093B0008C93B0008B0
:1045A8001D3C000800000000000000004D3D000810
:0400000508000000EF
:00000001FF
